{
  "contractName": "ZTTokenSale",
  "abi": [
    {
      "inputs": [
        {
          "internalType": "uint256",
          "name": "rate",
          "type": "uint256"
        },
        {
          "internalType": "address payable",
          "name": "wallet",
          "type": "address"
        },
        {
          "internalType": "contract IERC20",
          "name": "token",
          "type": "address"
        },
        {
          "internalType": "contract KYC",
          "name": "kyc",
          "type": "address"
        }
      ],
      "stateMutability": "nonpayable",
      "type": "constructor"
    },
    {
      "anonymous": false,
      "inputs": [
        {
          "indexed": true,
          "internalType": "address",
          "name": "purchaser",
          "type": "address"
        },
        {
          "indexed": true,
          "internalType": "address",
          "name": "beneficiary",
          "type": "address"
        },
        {
          "indexed": false,
          "internalType": "uint256",
          "name": "value",
          "type": "uint256"
        },
        {
          "indexed": false,
          "internalType": "uint256",
          "name": "amount",
          "type": "uint256"
        }
      ],
      "name": "TokensPurchased",
      "type": "event"
    },
    {
      "inputs": [
        {
          "internalType": "address",
          "name": "beneficiary",
          "type": "address"
        }
      ],
      "name": "buyTokens",
      "outputs": [],
      "stateMutability": "payable",
      "type": "function",
      "payable": true
    },
    {
      "inputs": [],
      "name": "rate",
      "outputs": [
        {
          "internalType": "uint256",
          "name": "",
          "type": "uint256"
        }
      ],
      "stateMutability": "view",
      "type": "function",
      "constant": true
    },
    {
      "inputs": [],
      "name": "token",
      "outputs": [
        {
          "internalType": "contract IERC20",
          "name": "",
          "type": "address"
        }
      ],
      "stateMutability": "view",
      "type": "function",
      "constant": true
    },
    {
      "inputs": [],
      "name": "wallet",
      "outputs": [
        {
          "internalType": "address payable",
          "name": "",
          "type": "address"
        }
      ],
      "stateMutability": "view",
      "type": "function",
      "constant": true
    },
    {
      "inputs": [],
      "name": "weiRaised",
      "outputs": [
        {
          "internalType": "uint256",
          "name": "",
          "type": "uint256"
        }
      ],
      "stateMutability": "view",
      "type": "function",
      "constant": true
    },
    {
      "stateMutability": "payable",
      "type": "receive",
      "payable": true
    }
  ],
  "bytecode": "0x60806040523480156200001157600080fd5b506040516200162438038062001624833981810160405281019062000037919062000388565b83838360016000819055506000831162000088576040517f08c379a00000000000000000000000000000000000000000000000000000000081526004016200007f906200045b565b60405180910390fd5b600073ffffffffffffffffffffffffffffffffffffffff168273ffffffffffffffffffffffffffffffffffffffff161415620000fb576040517f08c379a0000000000000000000000000000000000000000000000000000000008152600401620000f290620004f3565b60405180910390fd5b600073ffffffffffffffffffffffffffffffffffffffff168173ffffffffffffffffffffffffffffffffffffffff1614156200016e576040517f08c379a000000000000000000000000000000000000000000000000000000000815260040162000165906200058b565b60405180910390fd5b8260038190555081600260006101000a81548173ffffffffffffffffffffffffffffffffffffffff021916908373ffffffffffffffffffffffffffffffffffffffff16021790555080600160006101000a81548173ffffffffffffffffffffffffffffffffffffffff021916908373ffffffffffffffffffffffffffffffffffffffff16021790555050505080600560006101000a81548173ffffffffffffffffffffffffffffffffffffffff021916908373ffffffffffffffffffffffffffffffffffffffff16021790555050505050620005ad565b600080fd5b6000819050919050565b6200025f816200024a565b81146200026b57600080fd5b50565b6000815190506200027f8162000254565b92915050565b600073ffffffffffffffffffffffffffffffffffffffff82169050919050565b6000620002b28262000285565b9050919050565b620002c481620002a5565b8114620002d057600080fd5b50565b600081519050620002e481620002b9565b92915050565b6000620002f78262000285565b9050919050565b60006200030b82620002ea565b9050919050565b6200031d81620002fe565b81146200032957600080fd5b50565b6000815190506200033d8162000312565b92915050565b60006200035082620002ea565b9050919050565b620003628162000343565b81146200036e57600080fd5b50565b600081519050620003828162000357565b92915050565b60008060008060808587031215620003a557620003a462000245565b5b6000620003b5878288016200026e565b9450506020620003c887828801620002d3565b9350506040620003db878288016200032c565b9250506060620003ee8782880162000371565b91505092959194509250565b600082825260208201905092915050565b7f43726f776473616c653a20726174652069732030000000000000000000000000600082015250565b600062000443601483620003fa565b915062000450826200040b565b602082019050919050565b60006020820190508181036000830152620004768162000434565b9050919050565b7f43726f776473616c653a2077616c6c657420697320746865207a65726f20616460008201527f6472657373000000000000000000000000000000000000000000000000000000602082015250565b6000620004db602583620003fa565b9150620004e8826200047d565b604082019050919050565b600060208201905081810360008301526200050e81620004cc565b9050919050565b7f43726f776473616c653a20746f6b656e20697320746865207a65726f2061646460008201527f7265737300000000000000000000000000000000000000000000000000000000602082015250565b600062000573602483620003fa565b9150620005808262000515565b604082019050919050565b60006020820190508181036000830152620005a68162000564565b9050919050565b61106780620005bd6000396000f3fe60806040526004361061004e5760003560e01c80632c4e722e1461006a5780634042b66f14610095578063521eb273146100c0578063ec8ac4d8146100eb578063fc0c546a1461010757610065565b366100655761006361005e610132565b61013a565b005b600080fd5b34801561007657600080fd5b5061007f610260565b60405161008c9190610891565b60405180910390f35b3480156100a157600080fd5b506100aa61026a565b6040516100b79190610891565b60405180910390f35b3480156100cc57600080fd5b506100d5610274565b6040516100e291906108ed565b60405180910390f35b6101056004803603810190610100919061094b565b61013a565b005b34801561011357600080fd5b5061011c61029e565b60405161012991906109d7565b60405180910390f35b600033905090565b60026000541415610180576040517f08c379a000000000000000000000000000000000000000000000000000000000815260040161017790610a4f565b60405180910390fd5b6002600081905550600034905061019782826102c8565b60006101a2826103b1565b90506101b9826004546103cf90919063ffffffff16565b6004819055506101c983826103e5565b8273ffffffffffffffffffffffffffffffffffffffff166101e8610132565b73ffffffffffffffffffffffffffffffffffffffff167f6faf93231a456e552dbc9961f58d9713ee4f2e69d15f1975b050ef0911053a7b848460405161022f929190610a6f565b60405180910390a361024183836103f3565b6102496103f7565b6102538383610462565b5050600160008190555050565b6000600354905090565b6000600454905090565b6000600260009054906101000a900473ffffffffffffffffffffffffffffffffffffffff16905090565b6000600160009054906101000a900473ffffffffffffffffffffffffffffffffffffffff16905090565b6102d28282610466565b600560009054906101000a900473ffffffffffffffffffffffffffffffffffffffff1673ffffffffffffffffffffffffffffffffffffffff166333b6562b836040518263ffffffff1660e01b815260040161032d9190610aa7565b602060405180830381865afa15801561034a573d6000803e3d6000fd5b505050506040513d601f19601f8201168201806040525081019061036e9190610afa565b6103ad576040517f08c379a00000000000000000000000000000000000000000000000000000000081526004016103a490610b73565b60405180910390fd5b5050565b60006103c86003548361051e90919063ffffffff16565b9050919050565b600081836103dd9190610bc2565b905092915050565b6103ef8282610534565b5050565b5050565b600260009054906101000a900473ffffffffffffffffffffffffffffffffffffffff1673ffffffffffffffffffffffffffffffffffffffff166108fc349081150290604051600060405180830381858888f1935050505015801561045f573d6000803e3d6000fd5b50565b5050565b600073ffffffffffffffffffffffffffffffffffffffff168273ffffffffffffffffffffffffffffffffffffffff1614156104d6576040517f08c379a00000000000000000000000000000000000000000000000000000000081526004016104cd90610c8a565b60405180910390fd5b600081141561051a576040517f08c379a000000000000000000000000000000000000000000000000000000000815260040161051190610cf6565b60405180910390fd5b5050565b6000818361052c9190610d16565b905092915050565b6105818282600160009054906101000a900473ffffffffffffffffffffffffffffffffffffffff1673ffffffffffffffffffffffffffffffffffffffff166105859092919063ffffffff16565b5050565b6106068363a9059cbb60e01b84846040516024016105a4929190610d70565b604051602081830303815290604052907bffffffffffffffffffffffffffffffffffffffffffffffffffffffff19166020820180517bffffffffffffffffffffffffffffffffffffffffffffffffffffffff838183161783525050505061060b565b505050565b600061066d826040518060400160405280602081526020017f5361666545524332303a206c6f772d6c6576656c2063616c6c206661696c65648152508573ffffffffffffffffffffffffffffffffffffffff166106d29092919063ffffffff16565b90506000815111156106cd578080602001905181019061068d9190610afa565b6106cc576040517f08c379a00000000000000000000000000000000000000000000000000000000081526004016106c390610e0b565b60405180910390fd5b5b505050565b60606106e184846000856106ea565b90509392505050565b60608247101561072f576040517f08c379a000000000000000000000000000000000000000000000000000000000815260040161072690610e9d565b60405180910390fd5b610738856107fe565b610777576040517f08c379a000000000000000000000000000000000000000000000000000000000815260040161076e90610f09565b60405180910390fd5b6000808673ffffffffffffffffffffffffffffffffffffffff1685876040516107a09190610fa3565b60006040518083038185875af1925050503d80600081146107dd576040519150601f19603f3d011682016040523d82523d6000602084013e6107e2565b606091505b50915091506107f2828286610811565b92505050949350505050565b600080823b905060008111915050919050565b6060831561082157829050610871565b6000835111156108345782518084602001fd5b816040517f08c379a0000000000000000000000000000000000000000000000000000000008152600401610868919061100f565b60405180910390fd5b9392505050565b6000819050919050565b61088b81610878565b82525050565b60006020820190506108a66000830184610882565b92915050565b600073ffffffffffffffffffffffffffffffffffffffff82169050919050565b60006108d7826108ac565b9050919050565b6108e7816108cc565b82525050565b600060208201905061090260008301846108de565b92915050565b600080fd5b6000610918826108ac565b9050919050565b6109288161090d565b811461093357600080fd5b50565b6000813590506109458161091f565b92915050565b60006020828403121561096157610960610908565b5b600061096f84828501610936565b91505092915050565b6000819050919050565b600061099d610998610993846108ac565b610978565b6108ac565b9050919050565b60006109af82610982565b9050919050565b60006109c1826109a4565b9050919050565b6109d1816109b6565b82525050565b60006020820190506109ec60008301846109c8565b92915050565b600082825260208201905092915050565b7f5265656e7472616e637947756172643a207265656e7472616e742063616c6c00600082015250565b6000610a39601f836109f2565b9150610a4482610a03565b602082019050919050565b60006020820190508181036000830152610a6881610a2c565b9050919050565b6000604082019050610a846000830185610882565b610a916020830184610882565b9392505050565b610aa18161090d565b82525050565b6000602082019050610abc6000830184610a98565b92915050565b60008115159050919050565b610ad781610ac2565b8114610ae257600080fd5b50565b600081519050610af481610ace565b92915050565b600060208284031215610b1057610b0f610908565b5b6000610b1e84828501610ae5565b91505092915050565b7f4b5943206e6f7420636f6d706c65746564207965742c2061626f7274696e6700600082015250565b6000610b5d601f836109f2565b9150610b6882610b27565b602082019050919050565b60006020820190508181036000830152610b8c81610b50565b9050919050565b7f4e487b7100000000000000000000000000000000000000000000000000000000600052601160045260246000fd5b6000610bcd82610878565b9150610bd883610878565b9250827fffffffffffffffffffffffffffffffffffffffffffffffffffffffffffffffff03821115610c0d57610c0c610b93565b5b828201905092915050565b7f43726f776473616c653a2062656e656669636961727920697320746865207a6560008201527f726f206164647265737300000000000000000000000000000000000000000000602082015250565b6000610c74602a836109f2565b9150610c7f82610c18565b604082019050919050565b60006020820190508181036000830152610ca381610c67565b9050919050565b7f43726f776473616c653a20776569416d6f756e74206973203000000000000000600082015250565b6000610ce06019836109f2565b9150610ceb82610caa565b602082019050919050565b60006020820190508181036000830152610d0f81610cd3565b9050919050565b6000610d2182610878565b9150610d2c83610878565b9250817fffffffffffffffffffffffffffffffffffffffffffffffffffffffffffffffff0483118215151615610d6557610d64610b93565b5b828202905092915050565b6000604082019050610d856000830185610a98565b610d926020830184610882565b9392505050565b7f5361666545524332303a204552433230206f7065726174696f6e20646964206e60008201527f6f74207375636365656400000000000000000000000000000000000000000000602082015250565b6000610df5602a836109f2565b9150610e0082610d99565b604082019050919050565b60006020820190508181036000830152610e2481610de8565b9050919050565b7f416464726573733a20696e73756666696369656e742062616c616e636520666f60008201527f722063616c6c0000000000000000000000000000000000000000000000000000602082015250565b6000610e876026836109f2565b9150610e9282610e2b565b604082019050919050565b60006020820190508181036000830152610eb681610e7a565b9050919050565b7f416464726573733a2063616c6c20746f206e6f6e2d636f6e7472616374000000600082015250565b6000610ef3601d836109f2565b9150610efe82610ebd565b602082019050919050565b60006020820190508181036000830152610f2281610ee6565b9050919050565b600081519050919050565b600081905092915050565b60005b83811015610f5d578082015181840152602081019050610f42565b83811115610f6c576000848401525b50505050565b6000610f7d82610f29565b610f878185610f34565b9350610f97818560208601610f3f565b80840191505092915050565b6000610faf8284610f72565b915081905092915050565b600081519050919050565b6000601f19601f8301169050919050565b6000610fe182610fba565b610feb81856109f2565b9350610ffb818560208601610f3f565b61100481610fc5565b840191505092915050565b600060208201905081810360008301526110298184610fd6565b90509291505056fea26469706673582212206026a6f8a0b58981ced9fdbc7bc90c72963edc01ecdf394bdfb146eea4325bd464736f6c634300080b0033",
  "immutableReferences": {},
  "source": "// SPDX-License-Identifier: MIT\npragma solidity ^0.8.11;\n\nimport \"./Crowdsale.sol\";\nimport \"./KYC.sol\";\n\ncontract ZTTokenSale is Crowdsale {\n\n    KYC _kyc;\n\n    constructor(uint256 rate, address payable wallet, IERC20 token, KYC kyc) Crowdsale(rate, wallet, token) {\n        _kyc = kyc;\n    }\n\n    function _preValidatePurchase(address beneficiary, uint256 weiAmount) internal view override {\n        super._preValidatePurchase(beneficiary, weiAmount);\n        require(_kyc.getKYCCompleted(beneficiary), \"KYC not completed yet, aborting\");\n    }   \n}",
  "sourcePath": "/Users/tuantang/Documents/Examples/Tokenization/contracts/ZTTokenSale.sol",
  "compiler": {
    "name": "solc",
    "version": "0.8.11+commit.d7f03943.Emscripten.clang"
  },
  "schemaVersion": "3.4.4",
  "updatedAt": "2022-02-06T15:00:40.918Z",
  "networkType": "ethereum",
  "devdoc": {
    "kind": "dev",
    "methods": {
      "buyTokens(address)": {
        "details": "low level token purchase ***DO NOT OVERRIDE*** This function has a non-reentrancy guard, so it shouldn't be called by another `nonReentrant` function.",
        "params": {
          "beneficiary": "Recipient of the token purchase"
        }
      },
      "rate()": {
        "returns": {
          "_0": "the number of token units a buyer gets per wei."
        }
      },
      "token()": {
        "returns": {
          "_0": "the token being sold."
        }
      },
      "wallet()": {
        "returns": {
          "_0": "the address where funds are collected."
        }
      },
      "weiRaised()": {
        "returns": {
          "_0": "the amount of wei raised."
        }
      }
    },
    "version": 1
  },
  "userdoc": {
    "events": {
      "TokensPurchased(address,address,uint256,uint256)": {
        "notice": "Event for token purchase logging"
      }
    },
    "kind": "user",
    "methods": {},
    "version": 1
  }
}